:020000040000FA
:060000003EEF08F01200C3
:0A000600040007120000FE010000D4
:10001000010000006211000000010000A5000000C6
:100020000A110000A501000058000000DC100000CB
:08003000600000002E0000003A
:080038000A0EE66E010EE66EF1
:1000400093EC03F0E552E5521200D9CFE6FFE1CF81
:10005000D9FFF2DFFE0EDB506E0829E182EC03F0DF
:1000600000018E6F8EC0E6FFBFEC03F0E552300E4C
:1000700000018E5D8E6FFD0EDB508E5D05E3FC0E84
:10008000DB50D8808E5508E2000EE66E010EE66E5B
:1000900093EC03F0E552E552FD0EDB5000018E5D5E
:1000A000DDE3FC0EDB50D8808E55D8E309D082EC1E
:1000B00003F000018E6F8EC0E6FFBFEC03F0E55247
:1000C000BBDF00018E5100D0E552E7CFD9FF12000F
:1000D000D9CFE6FFE1CFD9FFE652DF6AFB0EDBCFD7
:1000E000E9FFFC0EDBCFEAFFEF5026E0100EDF5CED
:1000F00023E0FB0EDBCFE9FFFC0EDBCFEAFFEF5086
:10010000E66EFD0EDBCFE6FFFE0EDBCFE6FF42EC38
:1001100006F0E552E552E55257EC04F0A00EE66E0B
:10012000D4EC06F0E552FD0EDB2AFB0EDB2AFC0EBA
:1001300001E3DB2ADF2AD2D7E552E552E7CFD9FF28
:100140001200D9CFE6FFE1CFD9FF020EE126DF6A28
:10015000100EDF5C21E0FD0EDBCFE6FFFE0EDBCFF5
:10016000E6FF81EC05F0E552E552010EF3CFDBFF2F
:1001700057EC04F0FB0EDBCFE9FFFC0EDBCFEAFF10
:10018000010EDBCFEFFFFD0EDB2ADF2AFB0EDB2AA1
:10019000FC0E01E3DB2ADCD7020EE15C02E2E16A3D
:1001A000E552E16EE552E7CFD9FF1200D9CFE6FF65
:1001B000E1CFD9FF040EE126DF6A010EDB6A020EF1
:1001C000DB6A030EDB6AFE0EDB507A0826E1DF50A5
:1001D000026E036A800E021801E103501DE0020E58
:1001E000DB50100816E0200EE66EDFCFE6FFA00E13
:1001F000E66E42EC06F0E552E552E55257EC04F0AB
:10020000A00EE66ED4EC06F0E552DF2A020EDB2AE1
:10021000E6D7020EDB6ADBD76BD0FE0EDB50780828
:1002200067E10D0EE66E010EE66E93EC03F0E5520B
:10023000E552080EE66E010EE66E6E0EE66E05DF06
:10024000E552E552E552DF6E2C0EE66E010EE66ECB
:1002500093EC03F0E552E552080E026EDF04025CF7
:10026000300FE66EBFEC03F0E552290EE66EBFECF0
:1002700003F0E552080E026EDF04025CE66E010E2A
:10028000E66E6E0EE66EE1DEE552E552E552E76E91
:10029000010EE7CFDBFFDF06100EDF02F350DF6E4B
:1002A000030EDB6A010EDB50F36E030EDB50F35CD2
:1002B0001FE0020EDB50100816E0200EE66EDFCFC6
:1002C000E6FFA00EE66E42EC06F0E552E552E5527E
:1002D00057EC04F0A00EE66ED4EC06F0E552020EE8
:1002E000DB2ADF2AE6D7020EDB6A030EDB2ADAD727
:1002F000040EE15C02E2E16AE552E16EE552E7CF0D
:10030000D9FF1200D9CFE6FFE1CFD9FFE652DF6A6D
:10031000FC0EDB50DF5C17E0FD0EDBCFE9FFFE0ECD
:10032000DBCFEAFFEF500FE0FD0EDBCFE9FFFE0E63
:10033000DBCFEAFF200EEF6EDF2AFD0EDB2AFE0E7A
:1003400001E3DB2AE5D7E552E552E7CFD9FF1200FA
:10035000D9CFE6FFE1CFD9FF020EE126DF6A010E19
:10036000DB6ADF50026E036A800E021801E103505F
:100370002AE0900EE66E000EE66EDFCFE6FFA00EDE
:10038000E66EDFDEE552E552E552E552010EE66E1D
:10039000F1EC04F0E552900EE66E000EE66E93EC82
:1003A00003F0E552E552200EE66E900EE66E000E6A
:1003B000E66EA8DFE552E552E552100EDF24DF6E4F
:1003C000010EDB2ACED7020EE15C02E2E16AE552C1
:1003D000E16EE552E7CFD9FF1200D9CFE6FFE1CFBA
:1003E000D9FF040EE126DF6A010EDB6A020EDB6A2A
:1003F000030EDB6A0D0EE66E010EE66E93EC03F063
:10040000E552E552080EE66E010EE66E6E0EE66EE1
:100410001CDEE552E552E552DF6E2C0EE66E010E53
:10042000E66E93EC03F0E552E552080E026EDF042F
:10043000025C300FE66EBFEC03F0E552290EE66E6B
:10044000BFEC03F0E552080E026EDF04025CE66EBC
:10045000010EE66E6E0EE66EF8DDE552E552E552EF
:10046000E76E010EE7CFDBFF030EDFCFDBFFDF061A
:10047000100EDF02F350DF6E020EDB6A010EDB505E
:10048000F36E020EDB50F35C48E07C0EE66E010E6C
:10049000E66E93EC03F0E552E552030EDB50300FAD
:1004A000E66EBFEC03F0E552840EE66E010EE66EDA
:1004B00093EC03F0E552E552900EE66E000EE66E08
:1004C0000BEC04F0E552E552010EE66EF1EC04F09F
:1004D000E552900EE66E000EE66EDFCFE6FFA00E50
:1004E000E66EF6DDE552E552E552E552010EE66EA6
:1004F000F1EC04F0E552200EE66E900EE66E000E72
:10050000E66E00DFE552E552E552100EDF24DF6EA5
:10051000020EDB2A030EDB2AB1D7040EE15C02E2F5
:10052000E16AE552E16EE552E7CFD9FF1200310EE4
:10053000C86E6BEC08F0E66A080EE66EC3EC07F0D6
:10054000E552E5520B0EC86E1200D9CFE6FFE1CF9F
:10055000D9FF040EE126DF6A010EDB6A600EE66E4B
:10056000000EE66E93EC03F0E552E552020EAECFBC
:10057000DBFFE66AE66AE66A68DDE552E552E552C7
:1005800000018E6F770E8E5D03E0570E8E5D02E1E7
:1005900024DF80D0720E8E5D03E0520E8E5D48E146
:1005A000030EDB6A030EDB50080841E0900EE66E96
:1005B000000EE66EDFCFE6FFA00EE66EC2DDE5526E
:1005C000E552E552E552010EE66EF1EC04F0E5521B
:1005D000030EDB2A100EDF24DF6E900EE66E000E97
:1005E000E66E93EC03F0E552E552900EE66E010ED6
:1005F000E66E93EC03F0E552E552030EDB50300F4C
:10060000E66EBFEC03F0E5529A0EE66E010EE66E62
:1006100093EC03F0E552E552200EE66E900EE66E86
:10062000000EE66E6FDEE552E552E552BBD732D0E2
:10063000640E8E5D03E0440E8E5D25E1A50EE66E30
:10064000010EE66E93EC03F0E552E552020EE66E03
:10065000010EE66E6E0EE66EF8DCE552E552E552EE
:1006600000018E6F8E51020A08E0030A01E00AD0F1
:100670007A0EE66E9BDDE55205D0780EE66E96DDCD
:10068000E55200D007D0650E8E5D03E0450E8E5D0D
:1006900001E11AD0650E00018E5D16E0450E8E5DFB
:1006A00013E0720E8E5D10E0520E8E5D0DE0770E3F
:1006B0008E5D0AE0570E8E5D07E0640E8E5D04E0ED
:1006C000440E8E5D01E04AD7040EE15C02E2E16A6D
:0C06D000E552E16EE552E7CFD9FF1200C1
:0406DC00D9CFE6FF8D
:1006E000E1CFD9FFFD0EDBCFE6FFE66AFE0EDBCFE2
:1006F000E6FF8FEC06F0E552E552E552E552E7CF12
:10070000D9FF1200D9CFE6FFE1CFD9FFE6529EAA6A
:10071000FED7A4EC07F0DF6EDF5000D0E552E552C3
:10072000E7CFD9FF1200D9CFE6FFE1CFD9FFFD0E09
:10073000DBCFE6FFFE0EDBCFE6FF7EEC07F0E552F7
:10074000E552ACA2FED7E552E7CFD9FF1200D9CFD0
:10075000E6FFE1CFD9FF9EAAFED7FC0EDBCFE6FF76
:10076000FD0EDBCFE6FFFE0EDBCFE6FF4FEC07F022
:10077000E552E552E552E552E7CFD9FF1200D9CF55
:10078000E6FFE1CFD9FFFE0EDBCFE6FFF5EC07F089
:10079000E552ACA2FED7E552E7CFD9FF1200D9CF80
:1007A000E6FFE1CFD9FF020EE1260D0EE66EE7DF90
:1007B000E5520A0EE66EE3DFE552DF6AFC0EDB501F
:1007C000DF5C1FE29EAAFED7A4EC07F0E76E010EE5
:1007D000E7CFDBFFFD0EDBCFE9FFFE0EDBCFEAFF4D
:1007E000010EDBCFEFFFDBCFE6FFF5EC07F0E552C4
:1007F000ACA2FED7FD0EDB2AFE0E01E3DB2ADF2AC8
:10080000DDD7020EE15C02E2E16AE552E16EE552FB
:10081000E7CFD9FF1200D9CFE6FFE1CFD9FF020E13
:10082000E126DF6A010EDB500D0825E0100EDF5CCB
:1008300022E09EAAFED7A4EC07F0E76E010EE7CFF8
:10084000DBFFDB500D080EE0FD0EDBCFE9FFFE0EF7
:10085000DBCFEAFF010EDBCFEFFFDBCFE6FFF5ECEE
:1008600007F0E552ACA2FED7FD0EDB2AFE0E01E337
:10087000DB2ADF2AD7D7100EDF5C0FE0FD0EDBCFBF
:10088000E9FFFE0EDBCFEAFF200EEF6EFD0EDB2A46
:10089000FE0E01E3DB2ADF2AEED7020EE15C02E264
:0E08A000E16AE552E16EE552E7CFD9FF1200A2
:0208AE00D9CFA0
:1008B000E6FFE1CFD9FFE652C950DF6EC950DF6EC7
:1008C000E552E552E7CFD9FF1200D9CFE6FFE1CFDD
:1008D000D9FFFE0EDBCFE6FF16EC07F0E552E7DFAF
:1008E000E552E7CFD9FF1200D9CFE6FFE1CFD9FF1C
:1008F000E652C582C5B2FED7010EE66EF1EC04F0F9
:10090000E552D10EE66EE1DFE5524CEC08F0DF6E09
:10091000CEDFDF5000D0E552E552E7CFD9FF12001D
:10092000D9CFE6FFE1CFD9FFE652C580C5B0FED7EB
:10093000010EE66EF1EC04F0E552D00EE66EC5DF76
:10094000E552FE0EDBCFE6FFC0DFE552C582C5B241
:10095000FED7010EE66EF1EC04F0E552D10EE66E24
:10096000B4DFE5524CEC08F0DF6EA1DFC584C5B4FE
:10097000FED7DF5000D0E552E552E7CFD9FF120095
:10098000D9CFE6FFE1CFD9FFC580C5B0FED78FDF55
:10099000D00EE66E9ADFE552010EE66EF1EC04F041
:1009A000E552FD0EDBCFE6FF90DFE552010EE66E6D
:1009B000F1EC04F0E552FE0EDBCFE6FF86DFE552F8
:1009C000010EE66EF1EC04F0E552C584C5B4FED725
:1009D000C80EE66EF1EC04F0E552E552E7CFD9FF20
:0209E000120003
:0E09E200D9CFE6FFE1CFD9FFE652DF6AFE0E65
:1009F000DB50D880DF5407E3050EE66E1EEC08F0EE
:100A0000E552DF2AF4D700D0E552E552E7CFD9FF0F
:100A10001200D9CFE6FFE1CFD9FFE652DF6AFE0E22
:100A2000DB50D880DF5407E3010EE66E1EEC08F0C1
:100A3000E552DF2AF4D700D0E552E552E7CFD9FFDF
:100A40001200D9CFE6FFE1CFD9FF020EE126DF6A1F
:100A5000FE0EDB50DF5C13E2010EDB6A0A0EF36E62
:100A6000010EDBCFF4FFF350F45C07E2640EE66E98
:100A7000B8DFE552010EDB2AF1D7DF2AE9D7020EF3
:100A8000E15C02E2E16AE552E16EE552E7CFD9FFAF
:100A90001200D9CFE6FFE1CFD9FFE652DF6A0A0E96
:100AA000DF5C07E2320EE66E59EC08F0E552DF2A11
:100AB000F6D7E552E552E7CFD9FF12004B0EE66EAE
:100AC0001EEC08F0E55200D01200D9CFE6FFE1CFCE
:100AD000D9FFE652DF6A140EDF5C07E2190EE66EFC
:100AE0001EEC08F0E552DF2AF6D700D0E552E552B9
:100AF000E7CFD9FF1200010EE66EDEEC07F0E552FB
:020B00001200E1
:0E0B0200D9CFE6FFDACFE6FFE1CFD9FFE2CF91
:100B1000DAFF64EC08F0C580C5A003D0FDD7C5B0EE
:100B2000FED7A1B63BD0FD0E57D804E0C584C5B4AE
:100B3000FED71ED0C5BC3DD0FC0E4ED804E0C58407
:100B4000C5B4FED715D0C5BC2FD0C582C5A203D071
:100B5000FDD7C5B2FED7A1B621D0FD0EDB28E66ECB
:100B600016EC07F0E552000905E0C584C5B4FED7D0
:100B7000FD0E23D0C5BC14D0C586C5B6FED7C58A28
:100B8000C588C5A803D0FDD7C5B8FED7C584C5A400
:100B900003D0FDD7C5B4FED7A1A612D0F3680ED0FE
:100BA000C584C5B4FED703D0C584C5B4FED7FE0E38
:100BB00004D0C584C5B4FED7FE0EF36EF46806D02B
:100BC000C950026E036AF36E03C0F4FFE552E5CF2D
:100BD000DAFFE7CFD9FF1200DBCFE6FF16EC07F014
:060BE000E55200091200BD
:0A0BE600060EF66E000EF76E000E0C
:100BF000F86E00010900F550B66F0900F550B76FA7
:100C000003E1B66701D03DD00900F550B16F09008E
:100C1000F550B26F0900F550B36F09000900F550A7
:100C2000E96E0900F550EA6E090009000900F55067
:100C3000B46F0900F550B56F09000900F6CFB8F0A0
:100C4000F7CFB9F0F8CFBAF0B1C0F6FFB2C0F7FFF6
:100C5000B3C0F8FF0001B45302E1B55307E0090047
:100C6000F550EE6EB407F8E2B507F9D7B8C0F6FF55
:100C7000B9C0F7FFBAC0F8FF0001B607000EB75BB6
:040C8000BFD71200C8
:0C0C8400D9CFE6FFDACFE6FFE1CFD9FFC1
:100C9000E2CFDAFF64EC08F0C580C5A003D0FDD731
:100CA000C5B0FED7A1B62BD0FD0E32D804E0C58466
:100CB000C5B4FED711D0C5BC15D0FC0E29D804E0B0
:100CC000C584C5B4FED708D0C5BC08D0FB0E20D85B
:100CD0000EE0C584C5B4FED7FD0E14D0C584C5B4DE
:100CE000FED703D0C584C5B4FED7FE0E0BD0C58495
:100CF000C5A403D0FDD7C5B4FED7A1A602D0FF0E70
:100D000001D0000EE552E5CFDAFFE7CFD9FF1200A0
:0E0D1000DBCFE6FF16EC07F0E55200091200FB
:020D1E00D9CF2B
:100D2000E6FFDACFE6FFE1CFD9FFE2CFDAFFAC6A28
:100D3000AB6AFD0EDBB0AC88DBA202D0AC8CAB8C16
:100D4000DBB4AC8EDBA602D0AB8801D0AB8ADBB8BB
:100D5000AC849E98DBBAAB86DBAC02D09D8A01D016
:100D60009D9A9E9ADBAE02D09D8801D09D98FB0E85
:100D7000DB50AF6EFB0EFC0EDBCF03F003C002F0C6
:100D8000036A0250B06EAC8AAB8E949C948EAC50C9
:100D9000100B04E0AC50800B01E1948CE552E5CFE0
:080DA000DAFFE7CFD9FF1200D2
:080DA800D9CFE6FFDACFE6FF28
:100DB000E1CFD9FFE2CFDAFF64EC08F0C580C5A02F
:100DC00003D0FDD7C5B0FED7A1B61FD027D804E108
:100DD000C584C5B4FED70FD0C5AC0FD0C582C5A29F
:100DE00003D0FDD7C5B2FED7A1B60FD017D8F4E116
:100DF000C584C5B4FED7FD0E0BD0C584C5A403D0F1
:100E0000FDD7C5B4FED7A1A602D0FF0E01D0000EBB
:100E1000E552E5CFDAFFE7CFD9FF1200FD0EDBCFB9
:0C0E2000E6FF16EC07F0E552FF08120098
:040E2C00D9CFE6FF35
:100E3000DACFE6FFE1CFD9FFE2CFDAFFFD0EDB50DC
:100E4000C96EC6AE02D0FF0E24D00F0EC61408081D
:100E50000FE00F0EC6140B080BE0C6889EA6FED747
:100E6000C750040B03E1C750010B10E0000E11D076
:100E70000F0EC614080804E00F0EC6140B0809E193
:100E8000C7B0FED764EC08F0C5AC02D0FE0E01D0AE
:0E0E9000000EE552E5CFDAFFE7CFD9FF1200E2
:020E9E00D9CFAA
:100EA000E6FFDACFE6FFE1CFD9FFE2CFDAFFE65285
:100EB000E652DF6AFB0EDB50DF5C18E29EAAFED72B
:100EC000A4EC07F0E76E010EE7CFDBFFFC0EDBCFF3
:100ED000E9FFFD0EDBCFEAFF010EDBCFEFFFFC0EDB
:100EE000DB2AFD0E01E3DB2ADF2AE4D7E552E552D7
:0C0EF000E552E5CFDAFFE7CFD9FF120092
:040EFC00D9CFE6FF65
:100F0000DACFE6FFE1CFD9FFE2CFDAFFACA2FED71E
:100F1000FC0EDBCFE9FFFD0EDBCFEAFFEF50E66E04
:100F2000F5EC07F0E552FC0EDBCFE9FFDB2AFD0E06
:100F3000DBCFEAFF01E3DB2AEF50E8E1E552E5CF42
:080F4000DAFFE7CFD9FF120030
:080F4800D9CFE6FFDACFE6FF86
:100F5000E1CFD9FFE2CFDAFFE652F20E0101FD1731
:100F6000ABAC03D0FD91ABB0FD81ABB4FD85ABB2B2
:100F7000FD87AE50DF6EDF50E552E552E5CFDAFF78
:060F8000E7CFD9FF1200CB
:0A0F8600D9CFE6FFDACFE6FFE1CF96
:100F9000D9FFE2CFDAFF3F0EC716C66AC56AFD0E5B
:100FA000DB50C612FC0EDB50C71293829380C68AB8
:0C0FB000E552E5CFDAFFE7CFD9FF1200D1
:040FBC00FF0EE350F1
:100FC000056EEF0E01D0F30EE76EE72EE5EF07F0AA
:100FD0000C0E046EE76AE72EEBEF07F0042EEAEF43
:0A0FE00007F0052EE3EF07F0120002
:060FEA00D9CFE6FFDACFCB
:100FF000E6FFE1CFD9FFE2CFDAFFACAC04D0AC9092
:101000000101FDB3AC80FD0EDB50AD6EE552E5CFC6
:08101000DAFFE7CFD9FF12005F
:08101800070EB4120F0EC16EA9
:101020001F0EE66EFEC1E6FF6EEC03F0E552E552E0
:0C10300097EC02F0A5EC02F0FDD71200D6
:04103C00FF0EE35070
:10104000056E480E01D04C0EE76EE72EFED7E76A1C
:0C105000E72EFED7052EF7D70000120097
:04105C00000EF36E21
:1010600000EE00F0080E01D81200EA6002D0EE6A2D
:0C107000FCD7F350E9601200EE6AFCD7D8
:04107C0013EE00F07F
:1010800023EE00F0F86A019CF3EC05F06DEC08F03B
:081090000CEC08F0FBD7120084
:081098000F0EC614080804E065
:1010A0000F0EC6140B0801E1C586C7A0FED7C950B4
:0210B00012002C
:0E10B200FF0EE350E84E1200000000D000D008
:0810C00000D0E82EFAD712005F
:0810C8001F0EC514FDE1C75025
:0610D000040BFAE112001E
:0410D600C69A1200A4
:0210DA00120002
:0410DC000A0D536541
:1010E0006C6563742077726974652F726561642F13
:1010F00065726173652F657869743F2070726573DE
:0A1100007320772F722F642F650013
:06110A000A0D457261733D
:101110006520454550524F4D0D0909202D2028705E
:1011200072657373202731272920416C6C2064611C
:1011300074612077696C6C206265206C6F73742E0B
:101140002E210A0D4572617365206120706167650B
:101150000D0909202D20287072657373202732270E
:02116000290064
:0E1162000A0D496E76616C6964000A0D004545
:101170006E7465722074686520416464726573736F
:101180002028706167652031202D20382900456EA8
:1011900074657220746865204F66667365742028D4
:1011A00031202D2000456E746572207468652041E1
:1011B000646472657373202870616765204E6F2EBA
:1011C00031202D20382900456E74657220746865C1
:1011D000204F6666736574202831202D20000A0D8B
:1011E00050616765200020313662797465730D099E
:1011F00009000D0909097061676520002031366218
:07120000797465730A0D000B
:011207002CBA
:020000040030CA
:010001000CF2
:0100020019E4
:010003001EDE
:010005008179
:010006008079
:010008000FE8
:00000001FF
