:04000000F0EF3CF0F1
:10765800C69A1200C9CF4EF0C9CF4EF012009EAAAA
:10766800FED790EC3BF01200C5501F0BD8B4C7B43E
:10767800FBD71200030EE82EFED700F04E2EFAD7E5
:107688001200FA0E00F0E82EFDD74E2EFAD712009F
:107698004FC04EF05BEC3BF0ACB21200FDD751C0CE
:1076A8004EF052C04FF0506A44EC3DF01200ACACC2
:1076B80003D0AC902AB2AC804EC0ADFF120051C0CE
:1076C8004FF052C050F0D0EC3BF0ACB21200FDD7F6
:1076D800899451C083FF899289809FEC3BF08990FF
:1076E8009FEC3BF01200898451C083FF8992898006
:1076F8009FEC3BF089909FEC3BF012003F0EC716C1
:10770800000EC66E000EC56E4E50C6124F50C71200
:1077180093829380C68A1200F20E2A16ABAC03D06D
:107728002A90ABB02A80ABB42A84ABB22A86AECFFB
:107738004EF04E5012004F6E000E506E4F5007D054
:107748004F6E320E4E6E4F503EEC3BF0502A090EF3
:107758005064F6D71200506E000E516E505007D08C
:10776800506E050E4E6E505045EC3BF0512A51506C
:107778004F60F6D71200310EC86E2CEC3BF0506EFD
:10778800080E4E6E5050516E000E4F6E515082ECE6
:107798003BF00B0EC86E1200ACA2FED74FC0D9FF4B
:1077A80050C0DAFFDF504E6E5BEC3BF04FC0D9FFA4
:1077B80050C0DAFF4F4A502ADF50D8B41200ECD735
:1077C9002C202020202020202020202020202020A4
:1077D9002000505245535320772F722F650045786A
:1077E90069742E2E2E000A0D00070EB4120F0EC159
:1077F9006E000E956E01C051F05D6E1F0E526E5DEA
:107809005053EC3BF06FEC3CF0BFEC3BF024EC3F09
:10781900F0FDD70BD052C0D9FF53C0DAFFDF50516A
:107829006E77EC3BF0524A532A540652C0D9FF53A3
:10783900C0DAFFDF50D8B402D05466ECD712000A80
:107849000D446F20796F752077616E7420746F20F5
:1078590077726974652F726561642F657869743F01
:1078690020707265737320772F722F6500516E0037
:107879000E526E515009D04EC0D9FF4FC0DAFF20C9
:107889000EDF6E522A4E4A4F2A52505018D8B4076A
:10789900D04EC0D9FF4FC0DAFFDF50D8A4ECD712C1
:1078A90000536E000E546E535010D0536E000E5597
:1078B9006E535007D0536E640E4F6E5350AFEC3B6E
:1078C900F0552A090E5564F6D7542A5250545CD8FB
:1078D900B01200EBD7000E926E000E956E526E3804
:1078E9000E516E52506CEC3BF0526E800E516E523E
:1078F900506CEC3BF0526E0C0E516E52506CEC3BDE
:10790900F0526E010E516E52506CEC3BF012005564
:107919006E000E576E555014D051C04FF052C050E2
:10792900F04CEC3EF04F50566E2EEC3BF053C0D964
:10793900FF54C0DAFF56C0DFFF522A572A534A5470
:107949002A5750100AD8B41200E7D717D052C04F9F
:10795900F053C050F054C0D9FF55C0DAFFDF505181
:107969006ED2EC3DF02EEC3BF0566EA00E4F6E56EB
:1079790050A1EC3DF0532A544A552A54C0D9FF5519
:10798900C0DAFFDF50D8B41200E1D7526E000E55AD
:107999006E5250526E000E546E525018D0526EA054
:1079A9000E4F6E525055C050F0536E200E516E530B
:1079B90050D2EC3DF0542A5450100AD8A4EFD752B3
:1079C9006E000E546E52505550100F556E55508022
:1079D9000AD8B41200F0D700EE2AF0240EEE6AE8B5
:1079E90006FDE1480EF66E780EF76E000EF86E0091
:1079F900EE60F010EE2EF00900F5CFEEFFE550E154
:107A090050FAE1C90EF66E770EF76E000EF86E00A9
:107A1900EE01F010EE29F00900F5CFEEFFE550E197
:107A290050FAE10001F9EF3BF04EC0C9FFC6AE02C2
:107A3900D0FF0E24D0C6500F0B080AD8B40CD0C6FC
:107A4900500F0B0B0AD8B407D0C6889EA6FED7C71D
:107A5900A4C7B013D010D0C6500F0B080AD8B4056C
:107A6900D0C6500F0B0B0AD8A409D0C7B0FED7381F
:107A7900EC3BF0C5AC02D0FE0E01D0000E120000A6
:107A89000EAC6E000EAB6E4EB0AC884EA202D0ACFE
:107A99008CAB8C4EB4AC8E4EA602D0AB8801D0AB69
:107AA9008A4EB8AC849E984EBAAB864EAC02D09D35
:107AB9008A01D09D9A9E9A4EAE02D09D8801D09D92
:107AC900984FC0AFFF5050B06EAC8AAB8E949C9467
:107AD9008EACB8ACBE01D0948C1200516E000E521F
:107AE9006E515053500D0AD8B422D09EAAFED79099
:107AF900EC3BF0536E53500D0AD8B406D04FC0D9A1
:107B0900FF50C0DAFF53C0DFFF53C04EF05BEC3BC0
:107B1900F0ACA2FED74F4A502A522AE3D74FC0D918
:107B2900FF50C0DAFF200EDF6E4F4A502A522A5208
:107B390050100AD8B41200F2D738EC3BF0C580C512
:107B4900B0FED7C5B0FED7A1B627D04FC04EF019A9
:107B5900EC3DF0506E5028D8A417D0C584C5A41C9C
:107B6900D0FDD7C582C5B2FED7C5B2FED7A1B6141E
:107B7900D04FC04EF019EC3DF0506E5028D8A404F7
:107B8900D0C584C5A409D0FDD7C5BCEBD7C584C56C
:107B9900B4FED7C5B4FED7A150120038EC3BF0C5EE
:107BA90080C5B0FED7C5B0FED7A1B633D04FC04E01
:107BB900F019EC3DF00009D8B404D0C584C5A42956
:107BC900D0FDD7C5BC1CD050C04EF019EC3DF0001B
:107BD90009D8B404D0C584C5A41CD0FDD7C5BC0B35
:107BE900D051C04EF019EC3DF00009D8B40CD0C505
:107BF90084C5A40FD0FDD7C584C5A40BD0FDD7C5B6
:107C090084C5A407D0FDD7C584C5B4FED7C5B4FEC5
:107C1900D7A1501200576E000E586E5750CAEC3C4F
:107C2900F031D0000E526E270E516E63EC3BF0001E
:107C39000E506E2D0E4F6E72EC3DF0576E010E4FC9
:107C49006E5750AFEC3BF0576EA00E526E5750581E
:107C5900C053F0000E556E2D0E546EAAEC3CF05731
:107C69006E010E4F6E5750AFEC3BF0000E4F6E2D6C
:107C79000E4E6E576E200E506E57503BEC3CF0582E
:107C890050100F586E5850800AD8B41200CAD7380D
:107C9900EC3BF0C580C5B0FED7C5B0FED7A1B64153
:107CA900D04FC04EF019EC3DF00009D8B404D0C54E
:107CB90084C5B4FED720D0C5BC41D050C04EF01900
:107CC900EC3DF00009D8B404D0C584C5B4FED7137F
:107CD900D0C5BC30D0C582C5B2FED7C5B2FED7A1CA
:107CE900B620D04F284E6E19EC3DF00009D8B407E4
:107CF900D0C584C5B4FED7FF0E506EFD0E19D0C590
:107D0900BC13D0C586C5B6FED7C58AC588C5B8FE19
:107D1900D7C5B8FED7C584C5B4FED7C5B4FED7A1AB
:107D2900A614D04F68506814D0C584C5B4FED709CD
:107D3900D04F6E0ED0C584C5B4FED703D0C584C557
:107D4900B4FED7FF0E506EFE0EF3D7C9CF4FF050D9
:107D59006A120056662DD0576E800E516E57506CC0
:107D6900EC3BF0000E536E2D0E526E576E100E54F2
:107D79006E57500EEC3CF0576EC00E516E57506C5A
:107D8900EC3BF0000E536E3D0E526E576E100E54C2
:107D99006E57500EEC3CF0576E020E526E5750550E
:107DA900EC3CF0576E800E516E57506CEC3BF04036
:107DB900D0576EC00E516E57506CEC3BF0000E530D
:107DC9006E2D0E526E576E100E546E57500EEC3CBF
:107DD900F0576E020E526E575055EC3CF0576E80BC
:107DE9000E516E57506CEC3BF0000E536E020E5262
:107DF9006E576E100E546E57500EEC3CF0000E5339
:107E09006E2D0E526E576E100E546E57500EEC3C7E
:107E1900F0576EC00E516E57506CEC3BF0000E538C
:107E29006E020E526E576E100E546E57500EEC3C89
:107E3900F0576E020E526E575055EC3CF012005935
:107E49006E000E5C6E5950596E000E5B6E5950599A
:107E59006E000E5C6E5950596E820E516E59506CFF
:107E6900EC3BF0596E010E516E59506CEC3BF00031
:107E79000E536E130E526E596E100E546E59500EEB
:107E8900EC3CF00001000E526E0001600E516E6371
:107E9900EC3BF0AECF5AF033EC3BF02B6E000E52B8
:107EA9006E270E516E63EC3BF02BC04FF04CEC3B50
:107EB900F0000E526E270E516E63EC3BF02B50779B
:107EC9000AD8B404D02B50570AD8A403D00FEC3EDB
:107ED900F089D02B50720AD8B455D02B50520AD8F9
:107EE900B451D055D0596EA00E516E59505CC05244
:107EF900F0000E546E2D0E536E8CEC3CF0596E0151
:107F09000E4F6E5950AFEC3BF05C50100F5C6E5940
:107F19006EA00E516E59505CC052F0000E546E3D69
:107F29000E536E8CEC3CF0596E010E4F6E5950AFEA
:107F3900EC3BF05B660BD0596E000E566E5950AE95
:107F4900EC3EF0596E000E5B6E595006D0596E0129
:107F59000E566E5950AEEC3EF0000E526E2D0E517B
:107F69006E63EC3BF0000E526E270E516E63EC3BD4
:107F7900F0000E4F6E2D0E4E6E596E200E506E593A
:107F8900503BEC3CF05C50800AD8B42CD0ABD72BDA
:107F990050650AD8B404D02B50450AD8A423D05927
:107FA9006E010E516E59506CEC3BF0596E840E51B6
:107FB9006E59506CEC3BF0000E536E1F0E526E5909
:107FC9006E070E546E59500EEC3CF0596E010E526C
:107FD9006E595055EC3CF0596E010E516E59506C6A
:107FE900EC3BF008D02B50650AD8B404D02B50458F
:087FF9000AD8A42DD71200FFE5
:020000040020DA
:08000000FFFFFFFFFFFFFFFF00
:020000040030CA
:0E000000040C1F1EFF8081FF0FC00FE00F4099
:00000001FF
