:040000007AEF3DF066
:1075EE00C69A1200C9CF38F0C9CF38F01200000E7B
:1075FE003C6E350E3B6E34EC3BF012009EAAFED76D
:10760E0073EC3BF0396E39501200396E39502BEC59
:10761E003BF0ACB21200FDD73F6E3EC038F0396A77
:10762E003F509BEC3CF01200C5CF38F01F0E3816C1
:10763E00D8B4C7B4F9D71200386EFA0E00F0E82E9F
:10764E00FDD7382EFAD71200386EACAC03D0AC9002
:10765E004BB2AC8038C0ADFF12003CC03AF03BC01C
:10766E0039F082EC3BF0ACB21200FDD7310EC86E91
:10767E00F7EC3AF0000E386E080E64EC3BF00B0E91
:10768E00C86E1200396E000E3A6E04D0050E23EC51
:10769E003BF03A2A3A50395CD8A01200F7D7070EC1
:1076AE00B4120F0EC16E1F0E3E6E015013EC3BF066
:1076BE003DEC3BF049EC3FF0FDD7396E3F0EC7165F
:1076CE00000EC66E000EC56E3950C6123850C71267
:1076DE0093829380C68A1200F20E4B16ABAC03D087
:1076EE004B90ABB04B80ABB44B84ABB24B86AECFB2
:1076FE0038F038501200ACA2FED739C0D9FF3AC0CC
:10770E00DAFFDF502BEC3BF039C0D9FF3AC0DAFF7D
:10771E00394A3A2ADF50D8B41200EDD7000E3B6E2C
:10772E0009D038C0D9FF39C0DAFF200EDF6E3B2AF0
:10773E00384A392A3B503A18D8B407D038C0D9FF46
:0C774E0039C0DAFFDF50D8A4ECD71200DD
:10775B002C20313662797465730D0909002031369E
:10776B0062797465730A0D000A0D496E76616C6956
:10777B0064000D0909097061676520000A0D5061ED
:10778B00676520000A0D00416E000E436E13D03E5C
:10779B00C03BF04150FBEC3DF03B50426EF9EC3AF4
:1077AB00F03FC0D9FF40C0DAFF42C0DFFF3E2A43A3
:1077BB002A3F4A402A4350100AD8B41200E8D74156
:1077CB006E000E426E14D03EC03BF03FC0D9FF405E
:1077DB00C0DAFFDF503C6E41503FEC3DF0F9EC3A24
:1077EB00F0A00E09EC3CF03E2A3F4A402A422A3FC9
:1077FB00C0D9FF40C0DAFFDF50D8B404D0425010DC
:10780B000AD8A4E1D712003C6E1BEC3BF0C580C537
:10781B00B0FED7C5B0FED7A1B625D03C5007EC3D86
:10782B00F03B6E3B28D8A416D0C584C5A41BD0FD55
:10783B00D7C582C5B2FED7C5B2FED7A1B613D03C11
:10784B005007EC3DF03B6E3B28D8A404D0C584C553
:10785B00A409D0FDD7C5BCECD7C584C5B4FED7C52C
:10786B00B4FED7A15012003F6EFEEC3AF03F506EC3
:10787B000AD8A420D005EC3BF04C6E4C500CEC3BE2
:10788B00F04C50D00F4C6E3D504C5CD8A004D04CFB
:10789B00503E5CD8B006D0000E3C6E190E3B6E34D9
:1078AB00EC3BF03D504C5CD8A0E5D74C503E5CD83F
:1078BB00B007D0E0D705EC3BF04C6E4C500CEC3BDA
:1078CB00F0FEEC3AF04C501200000E3B6E17D09EBF
:1078DB00AAFED773EC3BF03C6E3C500D0AD8B409B2
:1078EB00D039C0D9FF3AC0DAFF3CC0DFFF3C502B88
:1078FB00EC3BF0ACA2FED7394A3A2A3B2A3C500D5E
:10790B000AD8B40ED03B50100AD8B40AD0E0D739FD
:10791B00C0D9FF3AC0DAFF200EDF6E394A3A2A3B54
:10792B002A3B50100AD8B41200F2D73D6E000EACB1
:10793B006E000EAB6E3DB0AC883DA202D0AC8CABF2
:10794B008C3DB4AC8E3DA602D0AB8801D0AB8A3D4A
:10795B00B8AC849E983DBAAB863DAC02D09D8A01F3
:10796B00D09D9A9E9A3DAE02D09D8801D09D9838AD
:10797B00C0AFFF39C03AF03AC03BF03C6A3B50B065
:10798B006EAC8AAB8E949C948EACB8ACBE01D0948A
:10799B008C120000456E746572207468652041641A
:1079AB006472657373202870616765204E6F2E318A
:1079BB00202D20382900456E74657220746865206F
:1079CB004F6666736574202831202D2000456E7438
:1079DB006572207468652041646472657373202836
:1079EB00706167652031202D20382900456E746544
:1079FB007220746865204F66667365742028312089
:107A0B002D20003A6E3AC0C9FFC6AE02D0FF0E3031
:107A1B00D0C6CF39F00F0E39163950080AD8B40F2B
:107A2B00D0C6CF39F00F0E391639500B0AD8B40720
:107A3B00D0C6889EA6FED7C7A4C7B019D016D0C68D
:107A4B00CF39F00F0E39163950080AD8B408D0C602
:107A5B00CF39F00F0E391639500B0AD8A409D0C7FD
:107A6B00B0FED71BEC3BF0C5AC02D0FE0E01D00034
:107A7B000E12003D6E1BEC3BF0C580C5B0FED7C5AA
:107A8B00B0FED7A1B630D03D5007EC3DF00009D881
:107A9B00B404D0C584C5A427D0FDD7C5BC1AD03B30
:107AAB005007EC3DF00009D8B404D0C584C5A41B25
:107ABB00D0FDD7C5BC0AD03C5007EC3DF00009D82F
:107ACB00B40CD0C584C5A40FD0FDD7C584C5A40BF9
:107ADB00D0FDD7C584C5A407D0FDD7C584C5B4FEDA
:107AEB00D7C5B4FED7A150120000EECFF0210EEE99
:107AFB006AE806FDE14D6A4C6A4B6A700EF66E7BC6
:107B0B000EF76E000EF86E01EE00F010EE86F00927
:107B1B0000F5CFEEFFE550E150FAE19F0EF66E79DE
:107B2B000EF76E000EF86E00EE60F010EE6FF009BF
:107B3B0000F5CFEEFFE550E150FAE15B0EF66E7704
:107B4B000EF76E000EF86E00EE01F010EE37F00936
:107B5B0000F5CFEEFFE550E150FAE1000EF86E00B4
:107B6B000156EF3BF00A0D45726173652045455098
:107B7B00524F4D0D0909202D20287072657373200B
:107B8B002731272920416C6C20646174612077694F
:107B9B006C6C206265206C6F73742E2E210A0D4560
:107BAB0072617365206120706167650D0909202D75
:107BBB00202870726573732027322729000A0D5312
:107BCB00656C6563742077726974652F7265616487
:107BDB002F65726173652F657869743F20707265CC
:107BEB00737320772F722F642F65003D6E1BEC3B58
:107BFB00F0C580C5B0FED7C5B0FED7A1B63ED03D0F
:107C0B005007EC3DF00009D8B404D0C584C5B4FED0
:107C1B00D71ED0C5BC3FD03B5007EC3DF00009D878
:107C2B00B404D0C584C5B4FED712D0C5BC2FD0C503
:107C3B0082C5B2FED7C5B2FED7A1B61FD03D28076D
:107C4B00EC3DF00009D8B407D0C584C5B4FED7FF0E
:107C5B000E3C6EFD0E19D0C5BC13D0C586C5B6FE45
:107C6B00D7C58AC588C5B8FED7C5B8FED7C584C5E4
:107C7B00B4FED7C5B4FED7A1A614D03B683C68149C
:107C8B00D0C584C5B4FED709D03B6E0ED0C584C514
:107C9B00B4FED703D0C584C5B4FED7FF0E3C6EFE31
:107CAB000EF3D7C9CF3BF03C6A1200426E000E4474
:107CBB006E000E406E000E436E000E416E42507A07
:107CCB000AD8B415D019D044C03BF0200E3C6EA09E
:107CDB000E3FEC3DF0F9EC3AF0A00E09EC3CF04411
:107CEB002A432A4350100AD8A4EED7000E436E4401
:107CFB0050800AD8B44FD0F5D74250780AD8A44A4E
:107D0B00D00001000E3C6E0001990E3B6E34EC3B33
:107D1B00F0010E3D6E080E3E6E6E0E39EC3CF044DB
:107D2B006E0001000E3C6E0001B80E3B6E34EC3B56
:107D3B00F044040008380F0CEC3BF0290E0CEC3B24
:107D4B00F0010E3D6E44040008080F3E6E6E0E39B6
:107D5B00EC3CF0406E44064450100DF3CF44F00061
:107D6B000E416E15D044C03BF0200E3C6EA00E3F72
:107D7B00EC3DF0F9EC3AF0A00E09EC3CF0432A4450
:107D8B002A4350100AD8A4EED7000E436E412A4066
:107D9B00504162F6D71200000E466E000E436E0085
:107DAB000E446E000E456E0001000E3C6E000199F4
:107DBB000E3B6E34EC3BF0010E3D6E080E3E6E6ECC
:107DCB000E39EC3CF0466E0001000E3C6E0001B823
:107DDB000E3B6E34EC3BF046040008380F0CEC3BCA
:107DEB00F0290E0CEC3BF0010E3D6E46040008082A
:107DFB000F3E6E6E0E39EC3CF0436E46C045F046BE
:107E0B00064650100DF3CF46F0000E446E38D000EE
:107E1B000E3C6E2D0E3B6E34EC3BF04550300F0C90
:107E2B00EC3BF0000E3C6E020E3B6E34EC3BF00074
:107E3B0001000E3A6E0001CF0E396E6AEC3CF00178
:107E4B000E49EC3BF046C03EF00001000E406E00C8
:107E5B0001CF0E3F6EA00EE5EC3BF0010E49EC3B63
:107E6B00F00001000E396E0001CF0E386E200E3A75
:107E7B006E95EC3BF04650100F466E442A452A4354
:107E8B00504462C5D71200000E496E000E476E01BA
:107E9B0001010E3C6E0101580E3B6E34EC3BF0AE13
:107EAB00CF48F0000E3D6E000E3E6E000E39EC3CDE
:107EBB00F04C6E4C50770AD8B404D04C50570AD8BB
:107ECB00A403D0D1EC3EF075D04C50720AD8B40458
:107EDB00D04C50520AD8A43CD0000E4A6E34D04934
:107EEB00C03EF00001000E406E0001CF0E3F6EA0B1
:107EFB000EC9EC3BF0010E49EC3BF04A2A495010FD
:107F0B000F496E0001000E3C6E0001CF0E3B6E342C
:107F1B00EC3BF0000E3C6E230E3B6E34EC3BF04A18
:107F2B0050300F0CEC3BF0000E3C6E0E0E3B6E34E3
:107F3B00EC3BF00001000E396E0001CF0E386E20C5
:107F4B000E3A6E95EC3BF04A50080AD8B432D0C7C3
:107F5B00D74C50640AD8B404D04C50440AD8A4214E
:107F6B00D00101010E3C6E0101000E3B6E34EC3B67
:107F7B00F0010E3D6E020E3E6E6E0E39EC3CF04C77
:107F8B006E08D07A0E5BEC3EF014D0780E5BEC3EB4
:107F9B00F010D04C50010AD8B4F4D7030AD8B4F57A
:107FAB00D708D04C50650AD8B424D04C50450AD8C9
:107FBB00B420D04C50650AD8B41CD04C50450AD8CC
:107FCB00B418D04C50720AD8B414D04C50520AD8B2
:107FDB00B410D04C50770AD8B40CD04C50570AD8A8
:107FEB00B408D04C50640AD8B404D04C50440AD8CE
:067FFB00A44ED71200FFA6
:020000040020DA
:08000000FFFFFFFFFFFFFFFF00
:020000040030CA
:0E000000040C1F1EFF8081FF0FC00FE00F4099
:00000001FF
