:020000040000FA
:060000007AEF08F0120087
:0A0006000200551100006000000028
:100010005600000054110000E40000000100000040
:10002000D9CFE6FFE1CFD9FFFB0EDBCFE9FFFC0E16
:10003000DBCFEAFFEF5022E0FB0EDBCFE9FFFC0E47
:10004000DBCFEAFFEF50E66EFD0EDBCFE6FFFE0EE4
:10005000DBCFE6FF7BEC06F0E552E552E55290EC93
:1000600004F0A00EE66E0DEC07F0E552FD0EDB2A63
:10007000FB0EDB2AFC0E01E3DB2AD6D7E552E7CFE5
:10008000D9FF1200D9CFE6FFE1CFD9FF020EE1265A
:10009000DF6A100EDF5C21E0FD0EDBCFE6FFFE0E17
:1000A000DBCFE6FFBAEC05F0E552E552010EF3CFE7
:1000B000DBFF90EC04F0FB0EDBCFE9FFFC0EDBCFA7
:1000C000EAFF010EDBCFEFFFFD0EDB2ADF2AFB0E7E
:1000D000DB2AFC0E01E3DB2ADCD7020EE15C02E244
:1000E000E16AE552E16EE552E7CFD9FF1200D9CFC0
:1000F000E6FFE1CFD9FF020EE126DF6A010EDB6ADF
:10010000DF50026E036A800E021801E1035018E00E
:10011000010EDB5010080EE0200EE66EDFCFE6FF8A
:10012000A00EE66E7BEC06F0E552E552E552010EBC
:10013000DB2AEED7010EDB6A100EDF24DF6EE0D77C
:10014000020EE15C02E2E16AE552E16EE552E7CFC0
:10015000D9FF1200D9CFE6FFE1CFD9FFE652DF6A1F
:10016000FC0EDB50DF5C17E0FD0EDBCFE9FFFE0E7F
:10017000DBCFEAFFEF500FE0FD0EDBCFE9FFFE0E15
:10018000DBCFEAFF200EEF6EDF2AFD0EDB2AFE0E2C
:1001900001E3DB2AE5D7E552E552E7CFD9FF1200AC
:1001A000D9CFE6FFE1CFD9FF020EE126DF6A010ECB
:1001B000DB6ADF50026E036A800E021801E1035011
:1001C00041E0B60EE66E000EE66EDFCFE6FFA00E53
:1001D000E66E58DFE552E552E552E552010EE66E55
:1001E0002AEC05F0E552B60EE66E000EE66EFAEC6D
:1001F00002F0E552E552AB0EE66E000EE66EFAEC4A
:1002000002F0E552E552010EDB5008080BE0100E3B
:10021000E66EB60EE66E000EE66EF5EC03F0E55205
:10022000E552E552200EE66EB60EE66E000EE66E64
:1002300091DFE552E552E552100EDF24DF6E010E2C
:10024000DB2AB7D7020EE15C02E2E16AE552E16E19
:10025000E552E7CFD9FF1200D9CFE6FFE1CFD9FFB2
:10026000E652DF6A44DFDF50026E036A800E021836
:1002700001E1035035E0AB0EE66E000EE66EFAECDF
:1002800002F0E552E552B60EE66E000EE66E72EC36
:1002900003F0E552E552010EE66E2AEC05F0E55258
:1002A000B60EE66E000EE66EDFCFE6FFA00EE66E3F
:1002B000B7DEE552E552E552E552010EE66E2AEC54
:1002C00005F0E552200EE66EB60EE66E000EE66E06
:1002D00041DFE552E552E552100EDF24DF6EC3D751
:1002E000E552E552E7CFD9FF1200310EC86EA7ECF8
:1002F00008F0E66A080EE66EFCEC07F0E552E552FF
:100300000B0EC86E1200D9CFE6FFE1CFD9FFFE0E6B
:10031000DB502BE1800EE66EBCEC03F0E552100ED4
:10032000E66EB60EE66E000EE66EF5EC03F0E552F4
:10033000E552E552C00EE66EBCEC03F0E552100E3D
:10034000E66EC60EE66E000EE66EF5EC03F0E552C4
:10035000E552E552020EE66E5AEC05F0E552800ECB
:10036000E66EBCEC03F0E55240D0C00EE66EBCEC8D
:1003700003F0E552100EE66EB60EE66E000EE66E67
:10038000F5EC03F0E552E552E552020EE66E5AEC4A
:1003900005F0E552800EE66EBCEC03F0E552100E5F
:1003A000E66E600EE66E000EE66EF5EC03F0E552CA
:1003B000E552E552100EE66EB60EE66E000EE66EE3
:1003C000F5EC03F0E552E552E552C00EE66EBCECEA
:1003D00003F0E552100EE66E600EE66E000EE66E5D
:1003E000F5EC03F0E552E552E552020EE66E5AECEA
:1003F00005F0E552E552E7CFD9FF1200D9CFE6FF6D
:10040000E1CFD9FF030EE126DF6A010EDB6ADF6A66
:10041000820EE66EBCEC03F0E552010EE66EBCEC1B
:1004200003F0E552100EE66E9F0EE66E000EE66ECD
:10043000F5EC03F0E552E552E552710EE66E000E62
:10044000E66EFAEC02F0E552E552020EAECFDBFFAB
:10045000F4EC02F00001E16FAB0EE66E000EE66E0A
:10046000FAEC02F0E552E552E1C0E6FF26EC03F0BB
:10047000E552AB0EE66E000EE66EFAEC02F0E552C7
:10048000E552770E0001E15D03E0570EE15D02E108
:10049000E3DE84D0720EE15D03E0520EE15D58E1CF
:1004A000DF50026E036A800E021801E103504FE034
:1004B000B60EE66E000EE66EDFCFE6FFA00EE66E2D
:1004C000E1DDE552E552E552E552010EE66E2AEC19
:1004D00005F0E552100EDF24DF6EC60EE66E000E4C
:1004E000E66EDFCFE6FFA00EE66ECCDDE552E5520C
:1004F000E552E552010EE66E2AEC05F0E552010EDA
:10050000DB5006E1E66AFFDEE552010EDB6A04D04D
:10051000010EE66EF8DEE552B60EE66E000EE66EF1
:10052000FAEC02F0E552E552AB0EE66E000EE66E16
:10053000FAEC02F0E552E552200EE66EB60EE66EDB
:10054000000EE66E07DEE552E552E552A9D726D049
:10055000650EE15D03E0450EE15D20E1010EE66E12
:10056000BCEC03F0E552840EE66EBCEC03F0E55201
:10057000070EE66EAE0EE66E000EE66EF5EC03F0CC
:10058000E552E552E552010EE66E5AEC05F0E552F1
:10059000010EE66EBCEC03F0E55208D0650E0001DA
:1005A000E15D04E0450EE15D01E031D7030EE15C61
:1005B00002E2E16AE552E16EE552E7CFD9FF1200AF
:1005C000D9CFE6FFE1CFD9FFFD0EDBCFE6FFE66A2C
:1005D000FE0EDBCFE6FFC8EC06F0E552E552E55231
:1005E000E552E7CFD9FF12009EAAFED7DDEC07F057
:1005F00000D01200D9CFE6FFE1CFD9FFFD0EDBCF4F
:10060000E6FFFE0EDBCFE6FFB7EC07F0E552E55262
:10061000ACA2FED7E552E7CFD9FF1200D9CFE6FF53
:10062000E1CFD9FF9EAAFED7FC0EDBCFE6FFFD0E81
:10063000DBCFE6FFFE0EDBCFE6FF88EC07F0E552EE
:10064000E552E552E552E7CFD9FF1200D9CFE6FFD8
:10065000E1CFD9FFFE0EDBCFE6FF2EEC08F0E5522E
:10066000ACA2FED7E552E7CFD9FF1200D9CFE6FF03
:10067000E1CFD9FF020EE1260D0EE66EE7DFE5526F
:100680000A0EE66EE3DFE552DF6AFC0EDB50DF5C4C
:100690001FE29EAAFED7DDEC07F0E76E010EE7CF62
:1006A000DBFFFD0EDBCFE9FFFE0EDBCFEAFF010E25
:1006B000DBCFEFFFDBCFE6FF2EEC08F0E552ACA27C
:1006C000FED7FD0EDB2AFE0E01E3DB2ADF2ADDD793
:1006D000020EE15C02E2E16AE552E16EE552E7CF2B
:1006E000D9FF1200D9CFE6FFE1CFD9FF020EE126F4
:1006F000DF6A010EDB500D0823E09EAAFED7DDEC79
:1007000007F0E76E010EE7CFDBFFDB500D0809E0D5
:10071000FD0EDBCFE9FFFE0EDBCFEAFF010EDBCFE4
:10072000EFFF010EDBCFE6FF2EEC08F0E552ACA2A6
:10073000FED7FD0EDB2AFE0E01E3DB2ADF2AD9D726
:10074000100EDF5C0FE0FD0EDBCFE9FFFE0EDBCF0E
:10075000EAFF200EEF6EFD0EDB2AFE0E01E3DB2A20
:10076000DF2AEED7020EE15C02E2E16AE552E16EB9
:08077000E552E7CFD9FF1200AA
:08077800D9CFE6FFE1CFD9FF64
:100780008994FE0EDB50836E8992898082EC05F09D
:10079000899082EC05F0E552E7CFD9FF1200D9CF5E
:1007A000E6FFE1CFD9FF8984FE0EDB50836E89928C
:1007B000898082EC05F0899082EC05F0E552E7CF64
:1007C000D9FF1200926A956A380EE66ED5DFE552BF
:1007D000800EE66ED1DFE5520C0EE66ECDDFE552FF
:1007E000010EE66EC9DFE5521200D9CFE6FFE1CF78
:1007F000D9FFFD0EDBCFE9FFFE0EDBCFEAFFEF50A6
:1008000015E0FC0EDB5012E0FD0EDBCFE9FFFE0E23
:10081000DBCFEAFFEF50E66EC2DFE552FD0EDB2ACA
:10082000FE0E01E3DB2AFC0EDB06E3D7E552E7CF41
:10083000D9FF1200D9CFE6FFE1CFD9FFE652DF6A38
:10084000FE0EDB50DF5C0BE0180EE66E95DFE55226
:10085000C80EE66E2AEC05F0E552DF2AF1D7E55224
:10086000E552E7CFD9FF1200D9CFE6FFE1CFD9FF9C
:10087000E652DF6AFE0EDB50DF5C0BE21C0EE66E1A
:100880007BDFE552C80EE66E2AEC05F0E552DF2A62
:10089000F1D7E552E552E7CFD9FF1200D9CFE6FFF5
:1008A000E1CFD9FFE652DF6A800EE66E65DFE552E2
:1008B000100EDF5C11E0FD0EDBCFE9FFFE0EDBCF9B
:1008C000EAFFEF50E66E6BDFE552FD0EDB2AFE0E0F
:1008D00001E3DB2ADF2AECD7FD0EDB2AFE0E01E363
:1008E000DB2A110EDF6EC00EE66E46DFE552200EEB
:1008F000DF5C11E0FD0EDBCFE9FFFE0EDBCFEAFF90
:10090000EF50E66E4CDFE552FD0EDB2AFE0E01E3F2
:10091000DB2ADF2AECD7E552E552E7CFD9FF1200F8
:10092000D9CFE6FFE1CFD9FFE652C950DF6EC950FB
:10093000DF6EE552E552E7CFD9FF1200D9CFE6FFCF
:10094000E1CFD9FFFE0EDBCFE6FF4FEC07F0E5521B
:10095000E7DFE552E7CFD9FF1200D9CFE6FFE1CFBD
:10096000D9FFE652C582C5B2FED7010EE66E2AEC6B
:1009700005F0E552D10EE66EE1DFE55288EC08F0B5
:10098000DF6ECEDFDF5000D0E552E552E7CFD9FF72
:100990001200D9CFE6FFE1CFD9FFE652C580C5B03E
:1009A000FED7010EE66E2AEC05F0E552D00EE66E9B
:1009B000C5DFE552FE0EDBCFE6FFC0DFE552C582A4
:1009C000C5B2FED7010EE66E2AEC05F0E552D10E57
:1009D000E66EB4DFE55288EC08F0DF6EA1DFC58477
:1009E000C5B4FED7DF5000D0E552E552E7CFD9FFBE
:1009F0001200D9CFE6FFE1CFD9FFC580C5B0FED741
:100A00008FDFD00EE66E9ADFE552010EE66E2AEC1D
:100A100005F0E552FD0EDBCFE6FF90DFE552010E5B
:100A2000E66E2AEC05F0E552FE0EDBCFE6FF86DF30
:100A3000E552010EE66E2AEC05F0E552C584C5B418
:100A4000FED7C80EE66E2AEC05F0E552E552E7CF78
:040A5000D9FF1200B8
:0C0A5400D9CFE6FFE1CFD9FFE652DF6A00
:100A6000FE0EDB50D880DF5407E3050EE66E5AEC2D
:100A700008F0E552DF2AF4D700D0E552E552E7CF7F
:100A8000D9FF1200D9CFE6FFE1CFD9FFE652DF6AE6
:100A9000FE0EDB50D880DF5407E3010EE66E5AEC01
:100AA00008F0E552DF2AF4D700D0E552E552E7CF4F
:100AB000D9FF1200D9CFE6FFE1CFD9FF020EE12620
:100AC000DF6AFE0EDB50DF5C13E2010EDB6A0A0E0A
:100AD000F36E010EDBCFF4FFF350F45C07E2640E1B
:100AE000E66EB8DFE552010EDB2AF1D7DF2AE9D73F
:100AF000020EE15C02E2E16AE552E16EE552E7CF07
:100B0000D9FF1200D9CFE6FFE1CFD9FFE652DF6A65
:100B10000A0EDF5C07E2320EE66E95EC08F0E55255
:100B2000DF2AF6D7E552E552E7CFD9FF12004B0E88
:100B3000E66E5AEC08F0E55200D01200D9CFE6FF7D
:100B4000E1CFD9FFE652DF6A140EDF5C07E2190E2F
:100B5000E66E5AEC08F0E552DF2AF6D700D0E552EF
:100B6000E552E7CFD9FF1200010EE66E17EC08F050
:040B7000E552120038
:0C0B7400D9CFE6FFDACFE6FFE1CFD9FFD2
:100B8000E2CFDAFFA0EC08F0C580C5A003D0FDD706
:100B9000C5B0FED7A1B63BD0FD0E57D804E0C58442
:100BA000C5B4FED71ED0C5BC3DD0FC0E4ED804E067
:100BB000C584C5B4FED715D0C5BC2FD0C582C5A28B
:100BC00003D0FDD7C5B2FED7A1B621D0FD0EDB28DC
:100BD000E66E4FEC07F0E552000905E0C584C5B4A8
:100BE000FED7FD0E23D0C5BC14D0C586C5B6FED732
:100BF000C58AC588C5A803D0FDD7C5B8FED7C584AA
:100C0000C5A403D0FDD7C5B4FED7A1A612D0F36802
:100C10000ED0C584C5B4FED703D0C584C5B4FED7F5
:100C2000FE0E04D0C584C5B4FED7FE0EF36EF46884
:100C300006D0C950026E036AF36E03C0F4FFE5529A
:100C4000E5CFDAFFE7CFD9FF1200DBCFE6FF4FECAD
:080C500007F0E5520009120053
:080C5800060EF66E000EF76EA9
:100C6000000EF86E00010900F550DC6F0900F55028
:100C7000DD6F03E1DC6701D03DD00900F550D76F8F
:100C80000900F550D86F0900F550D96F0900090027
:100C9000F550E96E0900F550EA6E090009000900F7
:100CA000F550DA6F0900F550DB6F09000900F6CF47
:100CB000DEF0F7CFDFF0F8CFE0F0D7C0F6FFD8C016
:100CC000F7FFD9C0F8FF0001DA5302E1DB5307E078
:100CD0000900F550EE6EDA07F8E2DB07F9D7DEC05F
:100CE000F6FFDFC0F7FFE0C0F8FF0001DC07000EF1
:060CF000DD5BBFD712001E
:0A0CF600D9CFE6FFDACFE6FFE1CF29
:100D0000D9FFE2CFDAFFA0EC08F0C580C5A003D080
:100D1000FDD7C5B0FED7A1B62BD0FD0E32D804E06A
:100D2000C584C5B4FED711D0C5BC15D0FC0E29D8DA
:100D300004E0C584C5B4FED708D0C5BC08D0FB0EFE
:100D400020D80EE0C584C5B4FED7FD0E14D0C584EE
:100D5000C5B4FED703D0C584C5B4FED7FE0E0BD0F4
:100D6000C584C5A403D0FDD7C5B4FED7A1A602D0C3
:100D7000FF0E01D0000EE552E5CFDAFFE7CFD9FF35
:100D80001200DBCFE6FF4FEC07F0E552000912003E
:100D9000D9CFE6FFDACFE6FFE1CFD9FFE2CFDAFF26
:100DA000AC6AAB6AFD0EDBB0AC88DBA202D0AC8CC7
:100DB000AB8CDBB4AC8EDBA602D0AB8801D0AB8AA7
:100DC000DBB8AC849E98DBBAAB86DBAC02D09D8AE4
:100DD00001D09D9A9E9ADBAE02D09D8801D09D984D
:100DE000FB0EDB50AF6EFB0EFC0EDBCF03F003C03F
:100DF00002F0036A0250B06EAC8AAB8E949C948E63
:100E0000AC50100B04E0AC50800B01E1948CE55227
:0A0E1000E5CFDAFFE7CFD9FF1200AB
:060E1A00D9CFE6FFDACF9C
:100E2000E6FFE1CFD9FFE2CFDAFFA0EC08F0C58002
:100E3000C5A003D0FDD7C5B0FED7A1B61FD027D817
:100E400004E1C584C5B4FED70FD0C5AC0FD0C582B0
:100E5000C5A203D0FDD7C5B2FED7A1B60FD017D813
:100E6000F4E1C584C5B4FED7FD0E0BD0C584C5A47E
:100E700003D0FDD7C5B4FED7A1A602D0FF0E01D086
:100E8000000EE552E5CFDAFFE7CFD9FF1200FD0EE5
:0E0E9000DBCFE6FF4FEC07F0E552FF08120043
:020E9E00D9CFAA
:100EA000E6FFDACFE6FFE1CFD9FFE2CFDAFFFD0EB2
:100EB000DB50C96EC6AE02D0FF0E24D00F0EC61492
:100EC00008080FE00F0EC6140B080BE0C6889EA69C
:100ED000FED7C750040B03E1C750010B10E0000E12
:100EE00011D00F0EC614080804E00F0EC6140B082C
:100EF00009E1C7B0FED7A0EC08F0C5AC02D0FE0EE9
:100F000001D0000EE552E5CFDAFFE7CFD9FF12009E
:100F1000D9CFE6FFDACFE6FFE1CFD9FFE2CFDAFFA4
:100F2000E652E652DF6AFB0EDB50DF5C18E29EAA57
:100F3000FED7DDEC07F0E76E010EE7CFDBFFFC0E1E
:100F4000DBCFE9FFFD0EDBCFEAFF010EDBCFEFFFCA
:100F5000FC0EDB2AFD0E01E3DB2ADF2AE4D7E55293
:0E0F6000E552E552E5CFDAFFE7CFD9FF1200E8
:020F6E00D9CFD9
:100F7000E6FFDACFE6FFE1CFD9FFE2CFDAFFACA29E
:100F8000FED7FC0EDBCFE9FFFD0EDBCFEAFFEF5013
:100F9000E66E2EEC08F0E552FC0EDBCFE9FFDB2A13
:100FA000FD0EDBCFEAFF01E3DB2AEF50E8E1E5527B
:0A0FB000E5CFDAFFE7CFD9FF12000A
:060FBA00D9CFE6FFDACFFB
:100FC000E6FFE1CFD9FFE2CFDAFFE652F20E0001F1
:100FD000E317ABAC03D0E391ABB0E381ABB4E385F3
:100FE000ABB2E387AE50DF6EDF50E552E552E5CF9E
:080FF000DAFFE7CFD9FF120080
:080FF800D9CFE6FFDACFE6FFD6
:10100000E1CFD9FFE2CFDAFF3F0EC716C66AC56A45
:10101000FD0EDB50C612FC0EDB50C712938293808C
:0E102000C68AE552E5CFDAFFE7CFD9FF12000E
:02102E00FF0EB3
:10103000E350056EEF0E01D0F30EE76EE72E1EEFC4
:1010400008F00C0E046EE76AE72E24EF08F0042E79
:0C10500023EF08F0052E1CEF08F0120042
:04105C00D9CFE6FF03
:10106000DACFE6FFE1CFD9FFE2CFDAFFACAC04D0B4
:10107000AC900001E3B3AC80FD0EDB50AD6EE552E9
:0A108000E5CFDAFFE7CFD9FF120039
:06108A00070EB4120F0E68
:10109000C16E956A1F0EE66EE4C0E6FFE0EC02F05A
:1010A000E552E552E2EC03F075EC01F0FEEC01F0E4
:0410B000FDD7120056
:0C10B400FF0EE350056E480E01D04C0EFC
:1010C000E76EE72EFED7E76AE72EFED7052EF7D7A5
:0410D000000012000A
:0C10D400000EF36E00EE00F0080E01D8D4
:1010E0001200EA6002D0EE6AFCD7F350E960120009
:0410F000EE6AFCD7D1
:0C10F40013EE00F023EE00F0F86A019CFF
:101100002CEC06F0A9EC08F045EC08F0FBD7120037
:101110000F0EC614080804E00F0EC6140B0801E1F8
:0A112000C586C7A0FED7C950120013
:06112A00FF0EE350E84E49
:101130001200000000D000D000D0E82EFAD7120034
:0E1140001F0EC514FDE1C750040BFAE11200AA
:02114E00C69A3F
:0211500012008B
:02115200120089
:011154002C6E
:0B11550020202020202020202020202F
:101160002020202020000A0D446F20796F75207701
:10117000616E7420746F2077726974652F72656177
:10118000642F657869743F20707265737320772FC0
:10119000722F6500505245535320772F722F6500F0
:0B11A0000A0D00457869742E2E2E0009
:020000040030CA
:010001000CF2
:0100020019E4
:010003001EDE
:010005008179
:010006008079
:010008000FE8
:00000001FF
